{
  "address": "0x836830f9faC5359F0C6EaC30BE0e0B3d1fa7A9d9",
  "abi": [
    {
      "inputs": [
        {
          "internalType": "contract IERC20",
          "name": "_token",
          "type": "address"
        },
        {
          "internalType": "contract ITokenMessenger",
          "name": "_tokenMessenger",
          "type": "address"
        },
        {
          "internalType": "contract IMessageTransmitter",
          "name": "_messageTransmitter",
          "type": "address"
        }
      ],
      "stateMutability": "nonpayable",
      "type": "constructor"
    },
    {
      "inputs": [
        {
          "internalType": "uint256",
          "name": "maxFee",
          "type": "uint256"
        },
        {
          "internalType": "uint32",
          "name": "destinationDomain",
          "type": "uint32"
        },
        {
          "internalType": "bytes",
          "name": "receiveAuthorization",
          "type": "bytes"
        }
      ],
      "name": "deposit",
      "outputs": [],
      "stateMutability": "nonpayable",
      "type": "function"
    },
    {
      "inputs": [],
      "name": "messageTransmitter",
      "outputs": [
        {
          "internalType": "contract IMessageTransmitter",
          "name": "",
          "type": "address"
        }
      ],
      "stateMutability": "view",
      "type": "function"
    },
    {
      "inputs": [],
      "name": "token",
      "outputs": [
        {
          "internalType": "contract IERC20",
          "name": "",
          "type": "address"
        }
      ],
      "stateMutability": "view",
      "type": "function"
    },
    {
      "inputs": [],
      "name": "tokenMessenger",
      "outputs": [
        {
          "internalType": "contract ITokenMessenger",
          "name": "",
          "type": "address"
        }
      ],
      "stateMutability": "view",
      "type": "function"
    },
    {
      "inputs": [
        {
          "internalType": "bytes",
          "name": "message",
          "type": "bytes"
        },
        {
          "internalType": "bytes",
          "name": "attestation",
          "type": "bytes"
        },
        {
          "internalType": "bytes",
          "name": "receiveAuthorization",
          "type": "bytes"
        }
      ],
      "name": "withdraw",
      "outputs": [],
      "stateMutability": "nonpayable",
      "type": "function"
    }
  ],
  "transactionHash": "0xca3ccc0037d4f45f14dcec968bbf04e7d2b7e6435b3288cf3fcd29871b142a81",
  "args": [
    "0xB97EF9Ef8734C71904D8002F8b6Bc66Dd9c48a6E",
    "0x6b25532e1060ce10cc3b0a99e5683b91bfde6982",
    "0x8186359af5f57fbb40c6b14a588d2a59c0c29880"
  ],
  "numDeployments": 1,
  "solcInputHash": "93761ecdfb1ba6c0ec685f337b32898d",
  "bytecode": "0x60e06040523480156200001157600080fd5b5060405162001e1738038062001e178339818101604052810190620000379190620001e4565b8273ffffffffffffffffffffffffffffffffffffffff1660808173ffffffffffffffffffffffffffffffffffffffff16815250508173ffffffffffffffffffffffffffffffffffffffff1660a08173ffffffffffffffffffffffffffffffffffffffff16815250508073ffffffffffffffffffffffffffffffffffffffff1660c08173ffffffffffffffffffffffffffffffffffffffff168152505050505062000240565b600080fd5b600073ffffffffffffffffffffffffffffffffffffffff82169050919050565b60006200010e82620000e1565b9050919050565b6000620001228262000101565b9050919050565b620001348162000115565b81146200014057600080fd5b50565b600081519050620001548162000129565b92915050565b6000620001678262000101565b9050919050565b62000179816200015a565b81146200018557600080fd5b50565b60008151905062000199816200016e565b92915050565b6000620001ac8262000101565b9050919050565b620001be816200019f565b8114620001ca57600080fd5b50565b600081519050620001de81620001b3565b92915050565b6000806000606084860312156200020057620001ff620000dc565b5b6000620002108682870162000143565b9350506020620002238682870162000188565b92505060406200023686828701620001cd565b9150509250925092565b60805160a05160c051611b62620002b56000396000818161011401526104e601526000818160f00152818161032901526103d101526000818161018301528181610251015281816102ed015281816104100152818161058b015281816106af0152818161074b01526107f50152611b626000f3fe608060405234801561001057600080fd5b50600436106100575760003560e01c8063461178301461005c5780637b04c1811461007a5780639b94f9a114610098578063d0f48715146100b4578063fc0c546a146100d0575b600080fd5b6100646100ee565b6040516100719190610f05565b60405180910390f35b610082610112565b60405161008f9190610f41565b60405180910390f35b6100b260048036038101906100ad919061103d565b610136565b005b6100ce60048036038101906100c991906110b1565b61049c565b005b6100d86107f3565b6040516100e59190611186565b60405180910390f35b7f000000000000000000000000000000000000000000000000000000000000000081565b7f000000000000000000000000000000000000000000000000000000000000000081565b61013f33610817565b61017e576040517f08c379a0000000000000000000000000000000000000000000000000000000008152600401610175906111fe565b60405180910390fd5b6000807f000000000000000000000000000000000000000000000000000000000000000073ffffffffffffffffffffffffffffffffffffffff1663ef55bec660e01b85856040516020016101d4939291906112aa565b6040516020818303038152906040526040516101f0919061133a565b6000604051808303816000865af19150503d806000811461022d576040519150601f19603f3d011682016040523d82523d6000602084013e610232565b606091505b50915091508161024457805160208201fd5b61024d866108c1565b60007f000000000000000000000000000000000000000000000000000000000000000073ffffffffffffffffffffffffffffffffffffffff166370a08231306040518263ffffffff1660e01b81526004016102a89190611372565b602060405180830381865afa1580156102c5573d6000803e3d6000fd5b505050506040513d601f19601f820116820180604052508101906102e991906113a2565b90507f000000000000000000000000000000000000000000000000000000000000000073ffffffffffffffffffffffffffffffffffffffff1663095ea7b37f0000000000000000000000000000000000000000000000000000000000000000836040518363ffffffff1660e01b81526004016103669291906113de565b6020604051808303816000875af1158015610385573d6000803e3d6000fd5b505050506040513d601f19601f820116820180604052508101906103a9919061143f565b50600085856000906020926103c093929190611476565b8101906103cd91906114e7565b90507f000000000000000000000000000000000000000000000000000000000000000073ffffffffffffffffffffffffffffffffffffffff16636fd3504e8389847f00000000000000000000000000000000000000000000000000000000000000006040518563ffffffff1660e01b815260040161044e9493929190611532565b6020604051808303816000875af115801561046d573d6000803e3d6000fd5b505050506040513d601f19601f8201168201806040525081019061049191906115b7565b505050505050505050565b6104a533610817565b6104e4576040517f08c379a00000000000000000000000000000000000000000000000000000000081526004016104db906111fe565b60405180910390fd5b7f000000000000000000000000000000000000000000000000000000000000000073ffffffffffffffffffffffffffffffffffffffff166357ecfd28878787876040518563ffffffff1660e01b81526004016105439493929190611633565b6020604051808303816000875af1158015610562573d6000803e3d6000fd5b505050506040513d601f19601f82011682018060405250810190610586919061143f565b5060007f000000000000000000000000000000000000000000000000000000000000000073ffffffffffffffffffffffffffffffffffffffff1663ef55bec660e01b84846040516020016105dc939291906112aa565b6040516020818303038152906040526040516105f8919061133a565b6000604051808303816000865af19150503d8060008114610635576040519150601f19603f3d011682016040523d82523d6000602084013e61063a565b606091505b505090508061067e576040517f08c379a0000000000000000000000000000000000000000000000000000000008152600401610675906116e0565b60405180910390fd5b61068661094d565b6000838360009060209261069c93929190611476565b8101906106a9919061173e565b905060007f000000000000000000000000000000000000000000000000000000000000000073ffffffffffffffffffffffffffffffffffffffff166370a08231306040518263ffffffff1660e01b81526004016107069190611372565b602060405180830381865afa158015610723573d6000803e3d6000fd5b505050506040513d601f19601f8201168201806040525081019061074791906113a2565b90507f000000000000000000000000000000000000000000000000000000000000000073ffffffffffffffffffffffffffffffffffffffff1663a9059cbb83836040518363ffffffff1660e01b81526004016107a49291906113de565b6020604051808303816000875af11580156107c3573d6000803e3d6000fd5b505050506040513d601f19601f820116820180604052508101906107e7919061143f565b50505050505050505050565b7f000000000000000000000000000000000000000000000000000000000000000081565b600061014446148061082a575061011846145b6108765773abcc9b596420a9e9172fd5938620e265a0f9df9273ffffffffffffffffffffffffffffffffffffffff168273ffffffffffffffffffffffffffffffffffffffff16146108ba565b73b16a1dbe755f992636705fdbb3a8678a657eb3ea73ffffffffffffffffffffffffffffffffffffffff168273ffffffffffffffffffffffffffffffffffffffff16145b9050919050565b60006108cb61098f565b905081811115610910576040517f08c379a0000000000000000000000000000000000000000000000000000000008152600401610907906117dd565b60405180910390fd5b61094961091b61099e565b826109246109ad565b73ffffffffffffffffffffffffffffffffffffffff166109bc9092919063ffffffff16565b5050565b61098d61095861099e565b61096061098f565b6109686109ad565b73ffffffffffffffffffffffffffffffffffffffff166109bc9092919063ffffffff16565b565b6000610999610a4d565b905090565b60006109a8610a59565b905090565b60006109b7610a68565b905090565b6000810315610a485773eeeeeeeeeeeeeeeeeeeeeeeeeeeeeeeeeeeeeeee73ffffffffffffffffffffffffffffffffffffffff168373ffffffffffffffffffffffffffffffffffffffff1614610a3c57610a3782828573ffffffffffffffffffffffffffffffffffffffff16610a779092919063ffffffff16565b610a47565b610a468282610afd565b5b5b505050565b60006020360335905090565b6000604836033560601c905090565b6000603436033560601c905090565b610af88363a9059cbb60e01b8484604051602401610a969291906113de565b604051602081830303815290604052907bffffffffffffffffffffffffffffffffffffffffffffffffffffffff19166020820180517bffffffffffffffffffffffffffffffffffffffffffffffffffffffff8381831617835250505050610bf1565b505050565b80471015610b40576040517f08c379a0000000000000000000000000000000000000000000000000000000008152600401610b3790611849565b60405180910390fd5b60008273ffffffffffffffffffffffffffffffffffffffff1682604051610b669061188f565b60006040518083038185875af1925050503d8060008114610ba3576040519150601f19603f3d011682016040523d82523d6000602084013e610ba8565b606091505b5050905080610bec576040517f08c379a0000000000000000000000000000000000000000000000000000000008152600401610be390611916565b60405180910390fd5b505050565b6000610c53826040518060400160405280602081526020017f5361666545524332303a206c6f772d6c6576656c2063616c6c206661696c65648152508573ffffffffffffffffffffffffffffffffffffffff16610cb99092919063ffffffff16565b9050600081511480610c75575080806020019051810190610c74919061143f565b5b610cb4576040517f08c379a0000000000000000000000000000000000000000000000000000000008152600401610cab906119a8565b60405180910390fd5b505050565b6060610cc88484600085610cd1565b90509392505050565b606082471015610d16576040517f08c379a0000000000000000000000000000000000000000000000000000000008152600401610d0d90611a3a565b60405180910390fd5b6000808673ffffffffffffffffffffffffffffffffffffffff168587604051610d3f919061133a565b60006040518083038185875af1925050503d8060008114610d7c576040519150601f19603f3d011682016040523d82523d6000602084013e610d81565b606091505b5091509150610d9287838387610d9e565b92505050949350505050565b60608315610e00576000835103610df857610db885610e13565b610df7576040517f08c379a0000000000000000000000000000000000000000000000000000000008152600401610dee90611aa6565b60405180910390fd5b5b829050610e0b565b610e0a8383610e36565b5b949350505050565b6000808273ffffffffffffffffffffffffffffffffffffffff163b119050919050565b600082511115610e495781518083602001fd5b806040517f08c379a0000000000000000000000000000000000000000000000000000000008152600401610e7d9190611b0a565b60405180910390fd5b600073ffffffffffffffffffffffffffffffffffffffff82169050919050565b6000819050919050565b6000610ecb610ec6610ec184610e86565b610ea6565b610e86565b9050919050565b6000610edd82610eb0565b9050919050565b6000610eef82610ed2565b9050919050565b610eff81610ee4565b82525050565b6000602082019050610f1a6000830184610ef6565b92915050565b6000610f2b82610ed2565b9050919050565b610f3b81610f20565b82525050565b6000602082019050610f566000830184610f32565b92915050565b600080fd5b600080fd5b6000819050919050565b610f7981610f66565b8114610f8457600080fd5b50565b600081359050610f9681610f70565b92915050565b600063ffffffff82169050919050565b610fb581610f9c565b8114610fc057600080fd5b50565b600081359050610fd281610fac565b92915050565b600080fd5b600080fd5b600080fd5b60008083601f840112610ffd57610ffc610fd8565b5b8235905067ffffffffffffffff81111561101a57611019610fdd565b5b60208301915083600182028301111561103657611035610fe2565b5b9250929050565b6000806000806060858703121561105757611056610f5c565b5b600061106587828801610f87565b945050602061107687828801610fc3565b935050604085013567ffffffffffffffff81111561109757611096610f61565b5b6110a387828801610fe7565b925092505092959194509250565b600080600080600080606087890312156110ce576110cd610f5c565b5b600087013567ffffffffffffffff8111156110ec576110eb610f61565b5b6110f889828a01610fe7565b9650965050602087013567ffffffffffffffff81111561111b5761111a610f61565b5b61112789828a01610fe7565b9450945050604087013567ffffffffffffffff81111561114a57611149610f61565b5b61115689828a01610fe7565b92509250509295509295509295565b600061117082610ed2565b9050919050565b61118081611165565b82525050565b600060208201905061119b6000830184611177565b92915050565b600082825260208201905092915050565b7f6f6e6c7947656c61746f52656c61790000000000000000000000000000000000600082015250565b60006111e8600f836111a1565b91506111f3826111b2565b602082019050919050565b60006020820190508181036000830152611217816111db565b9050919050565b60007fffffffff0000000000000000000000000000000000000000000000000000000082169050919050565b6000819050919050565b6112656112608261121e565b61124a565b82525050565b600081905092915050565b82818337600083830152505050565b6000611291838561126b565b935061129e838584611276565b82840190509392505050565b60006112b68286611254565b6004820191506112c7828486611285565b9150819050949350505050565b600081519050919050565b60005b838110156112fd5780820151818401526020810190506112e2565b60008484015250505050565b6000611314826112d4565b61131e818561126b565b935061132e8185602086016112df565b80840191505092915050565b60006113468284611309565b915081905092915050565b600061135c82610e86565b9050919050565b61136c81611351565b82525050565b60006020820190506113876000830184611363565b92915050565b60008151905061139c81610f70565b92915050565b6000602082840312156113b8576113b7610f5c565b5b60006113c68482850161138d565b91505092915050565b6113d881610f66565b82525050565b60006040820190506113f36000830185611363565b61140060208301846113cf565b9392505050565b60008115159050919050565b61141c81611407565b811461142757600080fd5b50565b60008151905061143981611413565b92915050565b60006020828403121561145557611454610f5c565b5b60006114638482850161142a565b91505092915050565b600080fd5b600080fd5b6000808585111561148a5761148961146c565b5b8386111561149b5761149a611471565b5b6001850283019150848603905094509492505050565b6000819050919050565b6114c4816114b1565b81146114cf57600080fd5b50565b6000813590506114e1816114bb565b92915050565b6000602082840312156114fd576114fc610f5c565b5b600061150b848285016114d2565b91505092915050565b61151d81610f9c565b82525050565b61152c816114b1565b82525050565b600060808201905061154760008301876113cf565b6115546020830186611514565b6115616040830185611523565b61156e6060830184611363565b95945050505050565b600067ffffffffffffffff82169050919050565b61159481611577565b811461159f57600080fd5b50565b6000815190506115b18161158b565b92915050565b6000602082840312156115cd576115cc610f5c565b5b60006115db848285016115a2565b91505092915050565b600082825260208201905092915050565b6000601f19601f8301169050919050565b600061161283856115e4565b935061161f838584611276565b611628836115f5565b840190509392505050565b6000604082019050818103600083015261164e818688611606565b90508181036020830152611663818486611606565b905095945050505050565b7f454950333030392e7265636569766557697468417574686f72697a6174696f6e60008201527f3a206661696c6564000000000000000000000000000000000000000000000000602082015250565b60006116ca6028836111a1565b91506116d58261166e565b604082019050919050565b600060208201905081810360008301526116f9816116bd565b9050919050565b600061170b82610e86565b9050919050565b61171b81611700565b811461172657600080fd5b50565b60008135905061173881611712565b92915050565b60006020828403121561175457611753610f5c565b5b600061176284828501611729565b91505092915050565b7f47656c61746f52656c6179436f6e746578742e5f7472616e7366657252656c6160008201527f794665654361707065643a206d61784665650000000000000000000000000000602082015250565b60006117c76032836111a1565b91506117d28261176b565b604082019050919050565b600060208201905081810360008301526117f6816117ba565b9050919050565b7f416464726573733a20696e73756666696369656e742062616c616e6365000000600082015250565b6000611833601d836111a1565b915061183e826117fd565b602082019050919050565b6000602082019050818103600083015261186281611826565b9050919050565b50565b600061187960008361126b565b915061188482611869565b600082019050919050565b600061189a8261186c565b9150819050919050565b7f416464726573733a20756e61626c6520746f2073656e642076616c75652c207260008201527f6563697069656e74206d61792068617665207265766572746564000000000000602082015250565b6000611900603a836111a1565b915061190b826118a4565b604082019050919050565b6000602082019050818103600083015261192f816118f3565b9050919050565b7f5361666545524332303a204552433230206f7065726174696f6e20646964206e60008201527f6f74207375636365656400000000000000000000000000000000000000000000602082015250565b6000611992602a836111a1565b915061199d82611936565b604082019050919050565b600060208201905081810360008301526119c181611985565b9050919050565b7f416464726573733a20696e73756666696369656e742062616c616e636520666f60008201527f722063616c6c0000000000000000000000000000000000000000000000000000602082015250565b6000611a246026836111a1565b9150611a2f826119c8565b604082019050919050565b60006020820190508181036000830152611a5381611a17565b9050919050565b7f416464726573733a2063616c6c20746f206e6f6e2d636f6e7472616374000000600082015250565b6000611a90601d836111a1565b9150611a9b82611a5a565b602082019050919050565b60006020820190508181036000830152611abf81611a83565b9050919050565b600081519050919050565b6000611adc82611ac6565b611ae681856111a1565b9350611af68185602086016112df565b611aff816115f5565b840191505092915050565b60006020820190508181036000830152611b248184611ad1565b90509291505056fea26469706673582212202b40854b2c8ee33941db2afc705b5bcd70f39f11b979a7b8a6a6e4d1c9f480e364736f6c63430008130033",
  "devdoc": {
    "kind": "dev",
    "methods": {},
    "version": 1
  },
  "userdoc": {
    "kind": "user",
    "methods": {},
    "version": 1
  },
  "storageLayout": {
    "storage": [],
    "types": null
  }
}