{
  "address": "0x706284A37B4615bD3354AC5A8aC6aa5e10F3DDC5",
  "abi": [
    {
      "inputs": [
        {
          "internalType": "contract IERC20",
          "name": "_token",
          "type": "address"
        },
        {
          "internalType": "contract ITokenMessenger",
          "name": "_tokenMessenger",
          "type": "address"
        },
        {
          "internalType": "contract IMessageTransmitter",
          "name": "_messageTransmitter",
          "type": "address"
        }
      ],
      "stateMutability": "nonpayable",
      "type": "constructor"
    },
    {
      "inputs": [
        {
          "internalType": "uint256",
          "name": "maxFee",
          "type": "uint256"
        },
        {
          "internalType": "uint32",
          "name": "destinationDomain",
          "type": "uint32"
        },
        {
          "internalType": "bytes",
          "name": "receiveAuthorization",
          "type": "bytes"
        }
      ],
      "name": "deposit",
      "outputs": [],
      "stateMutability": "nonpayable",
      "type": "function"
    },
    {
      "inputs": [],
      "name": "messageTransmitter",
      "outputs": [
        {
          "internalType": "contract IMessageTransmitter",
          "name": "",
          "type": "address"
        }
      ],
      "stateMutability": "view",
      "type": "function"
    },
    {
      "inputs": [],
      "name": "token",
      "outputs": [
        {
          "internalType": "contract IERC20",
          "name": "",
          "type": "address"
        }
      ],
      "stateMutability": "view",
      "type": "function"
    },
    {
      "inputs": [],
      "name": "tokenMessenger",
      "outputs": [
        {
          "internalType": "contract ITokenMessenger",
          "name": "",
          "type": "address"
        }
      ],
      "stateMutability": "view",
      "type": "function"
    },
    {
      "inputs": [
        {
          "internalType": "bytes",
          "name": "message",
          "type": "bytes"
        },
        {
          "internalType": "bytes",
          "name": "attestation",
          "type": "bytes"
        },
        {
          "internalType": "bytes",
          "name": "receiveAuthorization",
          "type": "bytes"
        }
      ],
      "name": "withdraw",
      "outputs": [],
      "stateMutability": "nonpayable",
      "type": "function"
    }
  ],
  "transactionHash": "0xec01747f86f6168c28641e3a6606af26bc059142d2727e2b68e674b11d1a8a77",
  "args": [
    "0xaf88d065e77c8cC2239327C5EDb3A432268e5831",
    "0x19330d10D9Cc8751218eaf51E8885D058642E08A",
    "0xC30362313FBBA5cf9163F0bb16a0e01f01A896ca"
  ],
  "numDeployments": 3,
  "solcInputHash": "06b7564cd1ad6add89042ef6e44dc5b7",
  "bytecode": "0x60e06040523480156200001157600080fd5b506040516200179a3803806200179a8339818101604052810190620000379190620001e4565b8273ffffffffffffffffffffffffffffffffffffffff1660808173ffffffffffffffffffffffffffffffffffffffff16815250508173ffffffffffffffffffffffffffffffffffffffff1660a08173ffffffffffffffffffffffffffffffffffffffff16815250508073ffffffffffffffffffffffffffffffffffffffff1660c08173ffffffffffffffffffffffffffffffffffffffff168152505050505062000240565b600080fd5b600073ffffffffffffffffffffffffffffffffffffffff82169050919050565b60006200010e82620000e1565b9050919050565b6000620001228262000101565b9050919050565b620001348162000115565b81146200014057600080fd5b50565b600081519050620001548162000129565b92915050565b6000620001678262000101565b9050919050565b62000179816200015a565b81146200018557600080fd5b50565b60008151905062000199816200016e565b92915050565b6000620001ac8262000101565b9050919050565b620001be816200019f565b8114620001ca57600080fd5b50565b600081519050620001de81620001b3565b92915050565b6000806000606084860312156200020057620001ff620000dc565b5b6000620002108682870162000143565b9350506020620002238682870162000188565b92505060406200023686828701620001cd565b9150509250925092565b60805160a05160c0516114ec620002ae60003960008181610114015261049301526000818160f0015281816102f5015261037801526000818161021d015281816102b9015281816103bf0152818161055d015281816105f9015281816106a2015261079901526114ec6000f3fe608060405234801561001057600080fd5b50600436106100575760003560e01c8063461178301461005c5780637b04c1811461007a5780639b94f9a114610098578063d0f48715146100b4578063fc0c546a146100d0575b600080fd5b6100646100ee565b6040516100719190610bf0565b60405180910390f35b610082610112565b60405161008f9190610c2c565b60405180910390f35b6100b260048036038101906100ad9190610d28565b610136565b005b6100ce60048036038101906100c99190610d9c565b610449565b005b6100d86106a0565b6040516100e59190610e71565b60405180910390f35b7f000000000000000000000000000000000000000000000000000000000000000081565b7f000000000000000000000000000000000000000000000000000000000000000081565b61013f336106c4565b61017e576040517f08c379a000000000000000000000000000000000000000000000000000000000815260040161017590610ee9565b60405180910390fd5b6000828281019061018f9190610f47565b90508073ffffffffffffffffffffffffffffffffffffffff166101b0610771565b73ffffffffffffffffffffffffffffffffffffffff1614610206576040517f08c379a00000000000000000000000000000000000000000000000000000000081526004016101fd90610fe6565b60405180910390fd5b6102108383610794565b610219856107ec565b60007f000000000000000000000000000000000000000000000000000000000000000073ffffffffffffffffffffffffffffffffffffffff166370a08231306040518263ffffffff1660e01b81526004016102749190611027565b602060405180830381865afa158015610291573d6000803e3d6000fd5b505050506040513d601f19601f820116820180604052508101906102b59190611057565b90507f000000000000000000000000000000000000000000000000000000000000000073ffffffffffffffffffffffffffffffffffffffff1663095ea7b37f0000000000000000000000000000000000000000000000000000000000000000836040518363ffffffff1660e01b8152600401610332929190611093565b6020604051808303816000875af1158015610351573d6000803e3d6000fd5b505050506040513d601f19601f8201168201806040525081019061037591906110f4565b507f000000000000000000000000000000000000000000000000000000000000000073ffffffffffffffffffffffffffffffffffffffff16636fd3504e82876103bd866108cc565b7f00000000000000000000000000000000000000000000000000000000000000006040518563ffffffff1660e01b81526004016103fd9493929190611149565b6020604051808303816000875af115801561041c573d6000803e3d6000fd5b505050506040513d601f19601f8201168201806040525081019061044091906111ce565b50505050505050565b610452336108ef565b610491576040517f08c379a000000000000000000000000000000000000000000000000000000000815260040161048890611247565b60405180910390fd5b7f000000000000000000000000000000000000000000000000000000000000000073ffffffffffffffffffffffffffffffffffffffff166357ecfd28878787876040518563ffffffff1660e01b81526004016104f094939291906112c5565b6020604051808303816000875af115801561050f573d6000803e3d6000fd5b505050506040513d601f19601f8201168201806040525081019061053391906110f4565b5061053e8282610794565b610546610999565b600082828101906105579190610f47565b905060007f000000000000000000000000000000000000000000000000000000000000000073ffffffffffffffffffffffffffffffffffffffff166370a08231306040518263ffffffff1660e01b81526004016105b49190611027565b602060405180830381865afa1580156105d1573d6000803e3d6000fd5b505050506040513d601f19601f820116820180604052508101906105f59190611057565b90507f000000000000000000000000000000000000000000000000000000000000000073ffffffffffffffffffffffffffffffffffffffff1663a9059cbb83836040518363ffffffff1660e01b8152600401610652929190611093565b6020604051808303816000875af1158015610671573d6000803e3d6000fd5b505050506040513d601f19601f8201168201806040525081019061069591906110f4565b505050505050505050565b7f000000000000000000000000000000000000000000000000000000000000000081565b60006101444614806106d7575061011846145b15610726577322dcc39b2ac376862183dd35a1664798dafc7da673ffffffffffffffffffffffffffffffffffffffff168273ffffffffffffffffffffffffffffffffffffffff1614905061076c565b73b539068872230f20456cf38ec52ef2f91af4ae4973ffffffffffffffffffffffffffffffffffffffff168273ffffffffffffffffffffffffffffffffffffffff161490505b919050565b600061077c336106c4565b610786573361078f565b61078e610a2f565b5b905090565b6107e87f000000000000000000000000000000000000000000000000000000000000000063ef55bec660e01b84846040516020016107d49392919061137d565b604051602081830303815290604052610a3e565b5050565b60006107f6610ac3565b90508181111561083b576040517f08c379a000000000000000000000000000000000000000000000000000000000815260040161083290611419565b60405180910390fd5b610843610ad2565b73ffffffffffffffffffffffffffffffffffffffff1663a9059cbb610866610ae1565b836040518363ffffffff1660e01b8152600401610884929190611093565b6020604051808303816000875af11580156108a3573d6000803e3d6000fd5b505050506040513d601f19601f820116820180604052508101906108c791906110f4565b505050565b60008173ffffffffffffffffffffffffffffffffffffffff1660001b9050919050565b6000610144461480610902575061011846145b61094e5773abcc9b596420a9e9172fd5938620e265a0f9df9273ffffffffffffffffffffffffffffffffffffffff168273ffffffffffffffffffffffffffffffffffffffff1614610992565b73b16a1dbe755f992636705fdbb3a8678a657eb3ea73ffffffffffffffffffffffffffffffffffffffff168273ffffffffffffffffffffffffffffffffffffffff16145b9050919050565b6109a1610af0565b73ffffffffffffffffffffffffffffffffffffffff1663a9059cbb6109c4610aff565b6109cc610b0e565b6040518363ffffffff1660e01b81526004016109e9929190611093565b6020604051808303816000875af1158015610a08573d6000803e3d6000fd5b505050506040513d601f19601f82011682018060405250810190610a2c91906110f4565b50565b6000601436033560601c905090565b6000808373ffffffffffffffffffffffffffffffffffffffff1683604051610a66919061149f565b6000604051808303816000865af19150503d8060008114610aa3576040519150601f19603f3d011682016040523d82523d6000602084013e610aa8565b606091505b509150915060008203610abd57805160208201fd5b50505050565b6000610acd610b1d565b905090565b6000610adc610b29565b905090565b6000610aeb610b38565b905090565b6000610afa610b47565b905090565b6000610b09610b56565b905090565b6000610b18610b65565b905090565b60006034360335905090565b6000604836033560601c905090565b6000605c36033560601c905090565b6000603436033560601c905090565b6000604836033560601c905090565b60006020360335905090565b600073ffffffffffffffffffffffffffffffffffffffff82169050919050565b6000819050919050565b6000610bb6610bb1610bac84610b71565b610b91565b610b71565b9050919050565b6000610bc882610b9b565b9050919050565b6000610bda82610bbd565b9050919050565b610bea81610bcf565b82525050565b6000602082019050610c056000830184610be1565b92915050565b6000610c1682610bbd565b9050919050565b610c2681610c0b565b82525050565b6000602082019050610c416000830184610c1d565b92915050565b600080fd5b600080fd5b6000819050919050565b610c6481610c51565b8114610c6f57600080fd5b50565b600081359050610c8181610c5b565b92915050565b600063ffffffff82169050919050565b610ca081610c87565b8114610cab57600080fd5b50565b600081359050610cbd81610c97565b92915050565b600080fd5b600080fd5b600080fd5b60008083601f840112610ce857610ce7610cc3565b5b8235905067ffffffffffffffff811115610d0557610d04610cc8565b5b602083019150836001820283011115610d2157610d20610ccd565b5b9250929050565b60008060008060608587031215610d4257610d41610c47565b5b6000610d5087828801610c72565b9450506020610d6187828801610cae565b935050604085013567ffffffffffffffff811115610d8257610d81610c4c565b5b610d8e87828801610cd2565b925092505092959194509250565b60008060008060008060608789031215610db957610db8610c47565b5b600087013567ffffffffffffffff811115610dd757610dd6610c4c565b5b610de389828a01610cd2565b9650965050602087013567ffffffffffffffff811115610e0657610e05610c4c565b5b610e1289828a01610cd2565b9450945050604087013567ffffffffffffffff811115610e3557610e34610c4c565b5b610e4189828a01610cd2565b92509250509295509295509295565b6000610e5b82610bbd565b9050919050565b610e6b81610e50565b82525050565b6000602082019050610e866000830184610e62565b92915050565b600082825260208201905092915050565b7f6f6e6c7947656c61746f52656c61794552433237373100000000000000000000600082015250565b6000610ed3601683610e8c565b9150610ede82610e9d565b602082019050919050565b60006020820190508181036000830152610f0281610ec6565b9050919050565b6000610f1482610b71565b9050919050565b610f2481610f09565b8114610f2f57600080fd5b50565b600081359050610f4181610f1b565b92915050565b600060208284031215610f5d57610f5c610c47565b5b6000610f6b84828501610f32565b91505092915050565b7f466f727761726465722e6465706f7369743a207369676e6572206d757374206260008201527f6520617574686f72697a65720000000000000000000000000000000000000000602082015250565b6000610fd0602c83610e8c565b9150610fdb82610f74565b604082019050919050565b60006020820190508181036000830152610fff81610fc3565b9050919050565b600061101182610b71565b9050919050565b61102181611006565b82525050565b600060208201905061103c6000830184611018565b92915050565b60008151905061105181610c5b565b92915050565b60006020828403121561106d5761106c610c47565b5b600061107b84828501611042565b91505092915050565b61108d81610c51565b82525050565b60006040820190506110a86000830185611018565b6110b56020830184611084565b9392505050565b60008115159050919050565b6110d1816110bc565b81146110dc57600080fd5b50565b6000815190506110ee816110c8565b92915050565b60006020828403121561110a57611109610c47565b5b6000611118848285016110df565b91505092915050565b61112a81610c87565b82525050565b6000819050919050565b61114381611130565b82525050565b600060808201905061115e6000830187611084565b61116b6020830186611121565b611178604083018561113a565b6111856060830184611018565b95945050505050565b600067ffffffffffffffff82169050919050565b6111ab8161118e565b81146111b657600080fd5b50565b6000815190506111c8816111a2565b92915050565b6000602082840312156111e4576111e3610c47565b5b60006111f2848285016111b9565b91505092915050565b7f6f6e6c7947656c61746f52656c61790000000000000000000000000000000000600082015250565b6000611231600f83610e8c565b915061123c826111fb565b602082019050919050565b6000602082019050818103600083015261126081611224565b9050919050565b600082825260208201905092915050565b82818337600083830152505050565b6000601f19601f8301169050919050565b60006112a48385611267565b93506112b1838584611278565b6112ba83611287565b840190509392505050565b600060408201905081810360008301526112e0818688611298565b905081810360208301526112f5818486611298565b905095945050505050565b60007fffffffff0000000000000000000000000000000000000000000000000000000082169050919050565b6000819050919050565b61134761134282611300565b61132c565b82525050565b600081905092915050565b6000611364838561134d565b9350611371838584611278565b82840190509392505050565b60006113898286611336565b60048201915061139a828486611358565b9150819050949350505050565b7f47656c61746f52656c6179436f6e746578742e5f7472616e7366657252656c6160008201527f79466565436170706564455243323737313a206d617846656500000000000000602082015250565b6000611403603983610e8c565b915061140e826113a7565b604082019050919050565b60006020820190508181036000830152611432816113f6565b9050919050565b600081519050919050565b60005b83811015611462578082015181840152602081019050611447565b60008484015250505050565b600061147982611439565b611483818561134d565b9350611493818560208601611444565b80840191505092915050565b60006114ab828461146e565b91508190509291505056fea2646970667358221220bb84f81d78f7f761c44dabff4a9a5fa7e692d9c145aa267785227a4437f15f9c64736f6c63430008130033",
  "devdoc": {
    "kind": "dev",
    "methods": {},
    "version": 1
  },
  "userdoc": {
    "kind": "user",
    "methods": {},
    "version": 1
  },
  "storageLayout": {
    "storage": [],
    "types": null
  }
}