{
  "address": "0x295B5ec96693783675b20eB26678b87F2cF89701",
  "abi": [
    {
      "inputs": [
        {
          "internalType": "contract IEIP3009Token",
          "name": "_token",
          "type": "address"
        },
        {
          "internalType": "contract IMessageTransmitter",
          "name": "_messageTransmitter",
          "type": "address"
        }
      ],
      "stateMutability": "nonpayable",
      "type": "constructor"
    },
    {
      "inputs": [],
      "name": "messageTransmitter",
      "outputs": [
        {
          "internalType": "contract IMessageTransmitter",
          "name": "",
          "type": "address"
        }
      ],
      "stateMutability": "view",
      "type": "function"
    },
    {
      "inputs": [
        {
          "internalType": "address",
          "name": "_owner",
          "type": "address"
        },
        {
          "internalType": "uint256",
          "name": "_maxGelatoFee",
          "type": "uint256"
        },
        {
          "internalType": "bytes",
          "name": "_message",
          "type": "bytes"
        },
        {
          "internalType": "bytes",
          "name": "_attestation",
          "type": "bytes"
        },
        {
          "components": [
            {
              "internalType": "uint256",
              "name": "validAfter",
              "type": "uint256"
            },
            {
              "internalType": "uint256",
              "name": "validBefore",
              "type": "uint256"
            },
            {
              "internalType": "bytes32",
              "name": "nonce",
              "type": "bytes32"
            },
            {
              "internalType": "uint8",
              "name": "v",
              "type": "uint8"
            },
            {
              "internalType": "bytes32",
              "name": "r",
              "type": "bytes32"
            },
            {
              "internalType": "bytes32",
              "name": "s",
              "type": "bytes32"
            }
          ],
          "internalType": "struct Authorization",
          "name": "_authorization",
          "type": "tuple"
        }
      ],
      "name": "receiveMessage",
      "outputs": [],
      "stateMutability": "nonpayable",
      "type": "function"
    },
    {
      "inputs": [],
      "name": "token",
      "outputs": [
        {
          "internalType": "contract IEIP3009Token",
          "name": "",
          "type": "address"
        }
      ],
      "stateMutability": "view",
      "type": "function"
    }
  ],
  "transactionHash": "0x9ff7eba2ce9638bb4acf571bd88cb900c4f04224fe05c4f0a789fe47dde5e59c",
  "args": [
    "0xaf88d065e77c8cC2239327C5EDb3A432268e5831",
    "0xC30362313FBBA5cf9163F0bb16a0e01f01A896ca"
  ],
  "numDeployments": 2,
  "solcInputHash": "3995aaa91e65f13bb1585b8017776a52",
  "bytecode": "0x60c060405234801561001057600080fd5b50604051610e56380380610e5683398101604081905261002f9161005e565b6001600160a01b039182166080521660a052610098565b6001600160a01b038116811461005b57600080fd5b50565b6000806040838503121561007157600080fd5b825161007c81610046565b602084015190925061008d81610046565b809150509250929050565b60805160a051610d866100d060003960008181604b015261018301526000818160b00152818161021901526103a20152610d866000f3fe608060405234801561001057600080fd5b50600436106100415760003560e01c80637b04c18114610046578063f87620a414610096578063fc0c546a146100ab575b600080fd5b61006d7f000000000000000000000000000000000000000000000000000000000000000081565b60405173ffffffffffffffffffffffffffffffffffffffff909116815260200160405180910390f35b6100a96100a4366004610ae9565b6100d2565b005b61006d7f000000000000000000000000000000000000000000000000000000000000000081565b6100db3361041c565b610146576040517f08c379a000000000000000000000000000000000000000000000000000000000815260206004820152600f60248201527f6f6e6c7947656c61746f52656c6179000000000000000000000000000000000060448201526064015b60405180910390fd5b6040517f57ecfd2800000000000000000000000000000000000000000000000000000000815273ffffffffffffffffffffffffffffffffffffffff7f000000000000000000000000000000000000000000000000000000000000000016906357ecfd28906101be908890889088908890600401610c12565b6020604051808303816000875af11580156101dd573d6000803e3d6000fd5b505050506040513d601f19601f820116820180604052508101906102019190610c39565b5073ffffffffffffffffffffffffffffffffffffffff7f00000000000000000000000000000000000000000000000000000000000000001663ef55bec688308985356020870135604088013561025d60808a0160608b01610c62565b6040517fffffffff0000000000000000000000000000000000000000000000000000000060e08a901b16815273ffffffffffffffffffffffffffffffffffffffff978816600482015296909516602487015260448601939093526064850191909152608484015260a483015260ff1660c4820152608084013560e482015260a084013561010482015261012401600060405180830381600087803b15801561030457600080fd5b505af1158015610318573d6000803e3d6000fd5b50505050610324610499565b60006103537fffffffffffffffffffffffffffffffffffffffffffffffffffffffffffffffe036013588610c85565b6040517fa9059cbb00000000000000000000000000000000000000000000000000000000815273ffffffffffffffffffffffffffffffffffffffff8a81166004830152602482018390529192507f00000000000000000000000000000000000000000000000000000000000000009091169063a9059cbb906044016020604051808303816000875af11580156103ed573d6000803e3d6000fd5b505050506040513d601f19601f820116820180604052508101906104119190610c39565b505050505050505050565b600046610144148061042f575046610118145b6104655773ffffffffffffffffffffffffffffffffffffffff821673abcc9b596420a9e9172fd5938620e265a0f9df9214610493565b73ffffffffffffffffffffffffffffffffffffffff821673b16a1dbe755f992636705fdbb3a8678a657eb3ea145b92915050565b61052b367fffffffffffffffffffffffffffffffffffffffffffffffffffffffffffffffb8013560601c367fffffffffffffffffffffffffffffffffffffffffffffffffffffffffffffffe00135367fffffffffffffffffffffffffffffffffffffffffffffffffffffffffffffffcc013560601c73ffffffffffffffffffffffffffffffffffffffff16919061052d565b565b8060000361053a57505050565b73ffffffffffffffffffffffffffffffffffffffff831673eeeeeeeeeeeeeeeeeeeeeeeeeeeeeeeeeeeeeeee146105915761058c73ffffffffffffffffffffffffffffffffffffffff8416838361059b565b505050565b61058c8282610628565b6040805173ffffffffffffffffffffffffffffffffffffffff8416602482015260448082018490528251808303909101815260649091019091526020810180517bffffffffffffffffffffffffffffffffffffffffffffffffffffffff167fa9059cbb0000000000000000000000000000000000000000000000000000000017905261058c908490610782565b80471015610692576040517f08c379a000000000000000000000000000000000000000000000000000000000815260206004820152601d60248201527f416464726573733a20696e73756666696369656e742062616c616e6365000000604482015260640161013d565b60008273ffffffffffffffffffffffffffffffffffffffff168260405160006040518083038185875af1925050503d80600081146106ec576040519150601f19603f3d011682016040523d82523d6000602084013e6106f1565b606091505b505090508061058c576040517f08c379a000000000000000000000000000000000000000000000000000000000815260206004820152603a60248201527f416464726573733a20756e61626c6520746f2073656e642076616c75652c207260448201527f6563697069656e74206d61792068617665207265766572746564000000000000606482015260840161013d565b60006107e4826040518060400160405280602081526020017f5361666545524332303a206c6f772d6c6576656c2063616c6c206661696c65648152508573ffffffffffffffffffffffffffffffffffffffff166108919092919063ffffffff16565b90508051600014806108055750808060200190518101906108059190610c39565b61058c576040517f08c379a000000000000000000000000000000000000000000000000000000000815260206004820152602a60248201527f5361666545524332303a204552433230206f7065726174696f6e20646964206e60448201527f6f74207375636365656400000000000000000000000000000000000000000000606482015260840161013d565b60606108a084846000856108a8565b949350505050565b60608247101561093a576040517f08c379a000000000000000000000000000000000000000000000000000000000815260206004820152602660248201527f416464726573733a20696e73756666696369656e742062616c616e636520666f60448201527f722063616c6c0000000000000000000000000000000000000000000000000000606482015260840161013d565b6000808673ffffffffffffffffffffffffffffffffffffffff1685876040516109639190610ce3565b60006040518083038185875af1925050503d80600081146109a0576040519150601f19603f3d011682016040523d82523d6000602084013e6109a5565b606091505b50915091506109b6878383876109c1565b979650505050505050565b60608315610a57578251600003610a505773ffffffffffffffffffffffffffffffffffffffff85163b610a50576040517f08c379a000000000000000000000000000000000000000000000000000000000815260206004820152601d60248201527f416464726573733a2063616c6c20746f206e6f6e2d636f6e7472616374000000604482015260640161013d565b50816108a0565b6108a08383815115610a6c5781518083602001fd5b806040517f08c379a000000000000000000000000000000000000000000000000000000000815260040161013d9190610cff565b60008083601f840112610ab257600080fd5b50813567ffffffffffffffff811115610aca57600080fd5b602083019150836020828501011115610ae257600080fd5b9250929050565b6000806000806000806000878903610140811215610b0657600080fd5b883573ffffffffffffffffffffffffffffffffffffffff81168114610b2a57600080fd5b975060208901359650604089013567ffffffffffffffff80821115610b4e57600080fd5b610b5a8c838d01610aa0565b909850965060608b0135915080821115610b7357600080fd5b50610b808b828c01610aa0565b90955093505060c07fffffffffffffffffffffffffffffffffffffffffffffffffffffffffffffff8082011215610bb657600080fd5b5060808801905092959891949750929550565b8183528181602085013750600060208284010152600060207fffffffffffffffffffffffffffffffffffffffffffffffffffffffffffffffe0601f840116840101905092915050565b604081526000610c26604083018688610bc9565b82810360208401526109b6818587610bc9565b600060208284031215610c4b57600080fd5b81518015158114610c5b57600080fd5b9392505050565b600060208284031215610c7457600080fd5b813560ff81168114610c5b57600080fd5b81810381811115610493577f4e487b7100000000000000000000000000000000000000000000000000000000600052601160045260246000fd5b60005b83811015610cda578181015183820152602001610cc2565b50506000910152565b60008251610cf5818460208701610cbf565b9190910192915050565b6020815260008251806020840152610d1e816040850160208701610cbf565b601f017fffffffffffffffffffffffffffffffffffffffffffffffffffffffffffffffe016919091016040019291505056fea26469706673582212202b54b0de991b314c95649437888df3136685c77980da07f9f76e745a576bd2e164736f6c63430008150033",
  "devdoc": {
    "kind": "dev",
    "methods": {},
    "version": 1
  },
  "userdoc": {
    "kind": "user",
    "methods": {},
    "version": 1
  },
  "storageLayout": {
    "storage": [],
    "types": null
  }
}