{
  "address": "0x4ACE92Ed3B003AbB165f7d15eec744baD8c905e0",
  "abi": [
    {
      "inputs": [
        {
          "internalType": "contract IEIP3009Token",
          "name": "_token",
          "type": "address"
        },
        {
          "internalType": "contract ITokenMessenger",
          "name": "_tokenMessenger",
          "type": "address"
        }
      ],
      "stateMutability": "nonpayable",
      "type": "constructor"
    },
    {
      "anonymous": false,
      "inputs": [
        {
          "indexed": false,
          "internalType": "address",
          "name": "owner",
          "type": "address"
        },
        {
          "indexed": false,
          "internalType": "uint256",
          "name": "maxFee",
          "type": "uint256"
        },
        {
          "indexed": false,
          "internalType": "uint32",
          "name": "domain",
          "type": "uint32"
        },
        {
          "components": [
            {
              "internalType": "uint256",
              "name": "validAfter",
              "type": "uint256"
            },
            {
              "internalType": "uint256",
              "name": "validBefore",
              "type": "uint256"
            },
            {
              "internalType": "bytes32",
              "name": "nonce",
              "type": "bytes32"
            },
            {
              "internalType": "uint8",
              "name": "v",
              "type": "uint8"
            },
            {
              "internalType": "bytes32",
              "name": "r",
              "type": "bytes32"
            },
            {
              "internalType": "bytes32",
              "name": "s",
              "type": "bytes32"
            }
          ],
          "indexed": false,
          "internalType": "struct Authorization",
          "name": "authorization",
          "type": "tuple"
        }
      ],
      "name": "DepositForBurn",
      "type": "event"
    },
    {
      "inputs": [
        {
          "internalType": "uint256",
          "name": "_value",
          "type": "uint256"
        },
        {
          "internalType": "uint256",
          "name": "_srcMaxFee",
          "type": "uint256"
        },
        {
          "internalType": "uint256",
          "name": "_dstMaxFee",
          "type": "uint256"
        },
        {
          "internalType": "uint32",
          "name": "_dstDomain",
          "type": "uint32"
        },
        {
          "components": [
            {
              "internalType": "uint256",
              "name": "validAfter",
              "type": "uint256"
            },
            {
              "internalType": "uint256",
              "name": "validBefore",
              "type": "uint256"
            },
            {
              "internalType": "bytes32",
              "name": "nonce",
              "type": "bytes32"
            },
            {
              "internalType": "uint8",
              "name": "v",
              "type": "uint8"
            },
            {
              "internalType": "bytes32",
              "name": "r",
              "type": "bytes32"
            },
            {
              "internalType": "bytes32",
              "name": "s",
              "type": "bytes32"
            }
          ],
          "internalType": "struct Authorization",
          "name": "_srcAuthorization",
          "type": "tuple"
        },
        {
          "components": [
            {
              "internalType": "uint256",
              "name": "validAfter",
              "type": "uint256"
            },
            {
              "internalType": "uint256",
              "name": "validBefore",
              "type": "uint256"
            },
            {
              "internalType": "bytes32",
              "name": "nonce",
              "type": "bytes32"
            },
            {
              "internalType": "uint8",
              "name": "v",
              "type": "uint8"
            },
            {
              "internalType": "bytes32",
              "name": "r",
              "type": "bytes32"
            },
            {
              "internalType": "bytes32",
              "name": "s",
              "type": "bytes32"
            }
          ],
          "internalType": "struct Authorization",
          "name": "_dstAuthorization",
          "type": "tuple"
        }
      ],
      "name": "depositForBurn",
      "outputs": [],
      "stateMutability": "nonpayable",
      "type": "function"
    },
    {
      "inputs": [],
      "name": "token",
      "outputs": [
        {
          "internalType": "contract IEIP3009Token",
          "name": "",
          "type": "address"
        }
      ],
      "stateMutability": "view",
      "type": "function"
    },
    {
      "inputs": [],
      "name": "tokenMessenger",
      "outputs": [
        {
          "internalType": "contract ITokenMessenger",
          "name": "",
          "type": "address"
        }
      ],
      "stateMutability": "view",
      "type": "function"
    }
  ],
  "transactionHash": "0x32b400002a688a83cf8ac22bd906d643bb5ba3c00298712225fe0bde11efb3b2",
  "args": [
    "0xaf88d065e77c8cC2239327C5EDb3A432268e5831",
    "0x19330d10D9Cc8751218eaf51E8885D058642E08A"
  ],
  "numDeployments": 1,
  "solcInputHash": "5cbc602854c96b59cda7de3ca4afe23d",
  "bytecode": "0x60c060405234801561001057600080fd5b5060405161101738038061101783398101604081905261002f9161005e565b6001600160a01b039182166080521660a052610098565b6001600160a01b038116811461005b57600080fd5b50565b6000806040838503121561007157600080fd5b825161007c81610046565b602084015190925061008d81610046565b809150509250929050565b60805160a051610f396100de600039600081816060015281816102e1015261038501526000818160b00152818161016901528181610313015261043c0152610f396000f3fe608060405234801561001057600080fd5b50600436106100415760003560e01c80630db4fcc414610046578063461178301461005b578063fc0c546a146100ab575b600080fd5b610059610054366004610cc5565b6100d2565b005b6100827f000000000000000000000000000000000000000000000000000000000000000081565b60405173ffffffffffffffffffffffffffffffffffffffff909116815260200160405180910390f35b6100827f000000000000000000000000000000000000000000000000000000000000000081565b6100db336104ef565b610146576040517f08c379a000000000000000000000000000000000000000000000000000000000815260206004820152601660248201527f6f6e6c7947656c61746f52656c6179455243323737310000000000000000000060448201526064015b60405180910390fd5b60006101506105d4565b905073ffffffffffffffffffffffffffffffffffffffff7f00000000000000000000000000000000000000000000000000000000000000001663ef55bec682308a8735602089013560408a01356101ad60808c0160608d01610d49565b6040517fffffffff0000000000000000000000000000000000000000000000000000000060e08a901b16815273ffffffffffffffffffffffffffffffffffffffff978816600482015296909516602487015260448601939093526064850191909152608484015260a483015260ff1660c4820152608086013560e482015260a086013561010482015261012401600060405180830381600087803b15801561025457600080fd5b505af1158015610268573d6000803e3d6000fd5b5050505061027586610613565b60006102a47fffffffffffffffffffffffffffffffffffffffffffffffffffffffffffffffcc36013589610d6b565b6040517f095ea7b300000000000000000000000000000000000000000000000000000000815273ffffffffffffffffffffffffffffffffffffffff7f000000000000000000000000000000000000000000000000000000000000000081166004830152602482018390529192507f00000000000000000000000000000000000000000000000000000000000000009091169063095ea7b3906044016020604051808303816000875af115801561035e573d6000803e3d6000fd5b505050506040513d601f19601f820116820180604052508101906103829190610da5565b507f000000000000000000000000000000000000000000000000000000000000000073ffffffffffffffffffffffffffffffffffffffff16636fd3504e82876103de8673ffffffffffffffffffffffffffffffffffffffff1690565b6040517fffffffff0000000000000000000000000000000000000000000000000000000060e086901b168152600481019390935263ffffffff919091166024830152604482015273ffffffffffffffffffffffffffffffffffffffff7f00000000000000000000000000000000000000000000000000000000000000001660648201526084016020604051808303816000875af1158015610483573d6000803e3d6000fd5b505050506040513d601f19601f820116820180604052508101906104a79190610dc7565b507f3d44caf0be10d5154adcaab3d9a9ae9240d30500ec02594035440fb950226c62828787866040516104dd9493929190610df1565b60405180910390a15050505050505050565b6000466101441480610502575046610118145b1561056e5773ffffffffffffffffffffffffffffffffffffffff82167322dcc39b2ac376862183dd35a1664798dafc7da61480610568575073ffffffffffffffffffffffffffffffffffffffff821673ba4082f4961c8fb76231995c967cd9aa40f321b5145b92915050565b73ffffffffffffffffffffffffffffffffffffffff821673b539068872230f20456cf38ec52ef2f91af4ae491480610568575073ffffffffffffffffffffffffffffffffffffffff8216738598806401a63ddf52473f1b3c55bc9e33e2d73b1492915050565b60006105df336104ef565b6105e857503390565b507fffffffffffffffffffffffffffffffffffffffffffffffffffffffffffffffec36013560601c90565b7fffffffffffffffffffffffffffffffffffffffffffffffffffffffffffffffcc360135818111156106c7576040517f08c379a000000000000000000000000000000000000000000000000000000000815260206004820152603960248201527f47656c61746f52656c6179436f6e74657874455243323737312e5f7472616e7360448201527f66657252656c61794665654361707065643a206d617846656500000000000000606482015260840161013d565b610736367fffffffffffffffffffffffffffffffffffffffffffffffffffffffffffffffa4013560601c82367fffffffffffffffffffffffffffffffffffffffffffffffffffffffffffffffb8013560601c73ffffffffffffffffffffffffffffffffffffffff16919061073a565b5050565b8060000361074757505050565b73ffffffffffffffffffffffffffffffffffffffff831673eeeeeeeeeeeeeeeeeeeeeeeeeeeeeeeeeeeeeeee1461079e5761079973ffffffffffffffffffffffffffffffffffffffff841683836107a8565b505050565b6107998282610835565b6040805173ffffffffffffffffffffffffffffffffffffffff8416602482015260448082018490528251808303909101815260649091019091526020810180517bffffffffffffffffffffffffffffffffffffffffffffffffffffffff167fa9059cbb0000000000000000000000000000000000000000000000000000000017905261079990849061098f565b8047101561089f576040517f08c379a000000000000000000000000000000000000000000000000000000000815260206004820152601d60248201527f416464726573733a20696e73756666696369656e742062616c616e6365000000604482015260640161013d565b60008273ffffffffffffffffffffffffffffffffffffffff168260405160006040518083038185875af1925050503d80600081146108f9576040519150601f19603f3d011682016040523d82523d6000602084013e6108fe565b606091505b5050905080610799576040517f08c379a000000000000000000000000000000000000000000000000000000000815260206004820152603a60248201527f416464726573733a20756e61626c6520746f2073656e642076616c75652c207260448201527f6563697069656e74206d61792068617665207265766572746564000000000000606482015260840161013d565b60006109f1826040518060400160405280602081526020017f5361666545524332303a206c6f772d6c6576656c2063616c6c206661696c65648152508573ffffffffffffffffffffffffffffffffffffffff16610a9e9092919063ffffffff16565b9050805160001480610a12575080806020019051810190610a129190610da5565b610799576040517f08c379a000000000000000000000000000000000000000000000000000000000815260206004820152602a60248201527f5361666545524332303a204552433230206f7065726174696f6e20646964206e60448201527f6f74207375636365656400000000000000000000000000000000000000000000606482015260840161013d565b6060610aad8484600085610ab5565b949350505050565b606082471015610b47576040517f08c379a000000000000000000000000000000000000000000000000000000000815260206004820152602660248201527f416464726573733a20696e73756666696369656e742062616c616e636520666f60448201527f722063616c6c0000000000000000000000000000000000000000000000000000606482015260840161013d565b6000808673ffffffffffffffffffffffffffffffffffffffff168587604051610b709190610e96565b60006040518083038185875af1925050503d8060008114610bad576040519150601f19603f3d011682016040523d82523d6000602084013e610bb2565b606091505b5091509150610bc387838387610bce565b979650505050505050565b60608315610c64578251600003610c5d5773ffffffffffffffffffffffffffffffffffffffff85163b610c5d576040517f08c379a000000000000000000000000000000000000000000000000000000000815260206004820152601d60248201527f416464726573733a2063616c6c20746f206e6f6e2d636f6e7472616374000000604482015260640161013d565b5081610aad565b610aad8383815115610c795781518083602001fd5b806040517f08c379a000000000000000000000000000000000000000000000000000000000815260040161013d9190610eb2565b600060c08284031215610cbf57600080fd5b50919050565b6000806000806000806102008789031215610cdf57600080fd5b863595506020870135945060408701359350606087013563ffffffff81168114610d0857600080fd5b9250610d178860808901610cad565b9150610d27886101408901610cad565b90509295509295509295565b803560ff81168114610d4457600080fd5b919050565b600060208284031215610d5b57600080fd5b610d6482610d33565b9392505050565b81810381811115610568577f4e487b7100000000000000000000000000000000000000000000000000000000600052601160045260246000fd5b600060208284031215610db757600080fd5b81518015158114610d6457600080fd5b600060208284031215610dd957600080fd5b815167ffffffffffffffff81168114610d6457600080fd5b60006101208201905073ffffffffffffffffffffffffffffffffffffffff8616825284602083015263ffffffff841660408301528235606083015260208301356080830152604083013560a083015260ff610e4e60608501610d33565b1660c0830152608083013560e083015260a083013561010083015295945050505050565b60005b83811015610e8d578181015183820152602001610e75565b50506000910152565b60008251610ea8818460208701610e72565b9190910192915050565b6020815260008251806020840152610ed1816040850160208701610e72565b601f017fffffffffffffffffffffffffffffffffffffffffffffffffffffffffffffffe016919091016040019291505056fea26469706673582212202d7af66619d35392253195b66bf02abf232709cb8ef88840cd685f01803dbf0f64736f6c63430008150033",
  "devdoc": {
    "kind": "dev",
    "methods": {},
    "version": 1
  },
  "userdoc": {
    "kind": "user",
    "methods": {},
    "version": 1
  },
  "storageLayout": {
    "storage": [],
    "types": null
  }
}